:1000000000800020BD010000F1230000BD2300009E
:10001000BD230000BD230000BD230000BD23000060
:10002000BD230000BD230000BD230000F12300001C
:10003000F1230000BD230000F1230000AD230000E8
:10004000F1230000F1230000F1230000F123000060
:10005000F1230000F1230000F1230000F123000050
:10006000F1230000F1230000F1230000F123000040
:10007000F1230000F1230000F1230000F123000030
:10008000F1230000F1230000F1230000F123000020
:10009000F1230000F1230000F1230000F123000010
:1000A000151F0000211F0000F1230000F1230000B4
:1000B000F1230000F1230000F1230000F1230000F0
:1000C000F1230000F1230000F1230000F1230000E0
:1000D000F1230000F1230000F1230000F1230000D0
:1000E000F1230000F1230000F1230000F1230000C0
:1000F000F1230000513F0000F1230000A94500005A
:10010000F1230000594A0000F1230000F123000010
:10011000F1230000F1230000F1230000F12300008F
:10012000F1230000F1230000F1230000F12300007F
:10013000F1230000F1230000F1230000F12300006F
:10014000F1230000F1230000F1230000F12300005F
:10015000F1230000F1230000F1230000F12300004F
:10016000F1230000BD2D0000F1230000F123000069
:10017000F1230000F1230000F1230000F12300002F
:10018000F1230000F1230000F1230000F12300001F
:10019000F1230000F1230000F1230000F12300000F
:1001A000F1230000F1230000F1230000F1230000FF
:1001B000F1230000F1230000F1230000564B4CF224
:1001C000205210B51A804DF628121A8000BF00BFC9
:1001D00002F012F9514B4FF010621A60504A9A60C7
:1001E000504ADA60A3F53043203B1A6812F480725B
:1001F00004D14D490A604FF4A8521A604B4B1A784B
:10020000110703D51A7842F008021A70484B2A22C7
:100210001A700023474A48499818884204D247492F
:10022000595899500433F5E7454A464B9A424FF0E6
:10023000000302D242F8043BF7E74349434A5958C6
:1002400099500433B3F5DE7FF7D1414B802103F899
:10025000011B40498B42F9D13F4B1A603F4B0A22A8
:100260001A70A3F5805324225A70A0221A709A792A
:100270009207FCD59A79D406FCD4394B9A7902F0CE
:100280000C02082AF9D105221A7143225A719A796F
:100290009006FCD5324B9A795106FBD5314A4FF086
:1002A000817111600521516020221A702C4B9B79BD
:1002B00003F00C030C2BF9D12B4B2C4A1A602C4B5E
:1002C0002C4A1A6000225A60072243F8042C2A4A5A
:1002D000C3F80C2D62B602F059FC134B1B68DA0709
:1002E00005D5264802F038FA254B264A1A60264BD7
:1002F0001B785B0609D5224C224A2368934204D11D
:100300001E4802F029FA0023236005F069FD02F07F
:1003100079F803F025FBFEE70E200540308004400D
:10032000823F04000100002B14D0034002D007409C
:1003300000E007406087FF1F508DFF1FAC68000082
:10034000508DFF1FD891FF1F000000000082FF1F8B
:1003500000E400E05FE400E008ED00E0005006404B
:10036000004006404480044004800440C010050062
:1003700014E000E03F1901000000202096DF245720
:100380001CE00340A5C3945A00F00740FFFFFFFFA5
:10039000FFFFFFFFFFFFFFFFFFFFFFFFFFFFFFFF6D
:1003A000FFFFFFFFFFFFFFFFFFFFFFFFFFFFFFFF5D
:1003B000FFFFFFFFFFFFFFFFFFFFFFFFFFFFFFFF4D
:1003C000FFFFFFFFFFFFFFFFFFFFFFFFFFFFFFFF3D
:1003D000FFFFFFFFFFFFFFFFFFFFFFFFFFFFFFFF2D
:1003E000FFFFFFFFFFFFFFFFFFFFFFFFFFFFFFFF1D
:1003F000FFFFFFFFFFFFFFFFFFFFFFFFFFFFFFFF0D
:10040000FFFFFFFFFFFFFFFFFFFFFFFFFEFFFFFFFD
:1004100010B5054C237833B9044B13B10448AFF33E
:1004200000800123237010BD508DFF1F00000000CD
:10043000AC68000008B5064B1BB106480649AFF38F
:1004400000800648036813B1054B03B1984708BD07
:1004500000000000AC680000548DFF1F508DFF1F8E
:100460000000000008B50348036806211B68984790
:1004700008BD00BF548EFF1F03F060B803F01CB826
:1004800003F040B803F0DCB8084603F0CDB80846E6
:10049000114603F061B8FFFF022870B5044619D178
:1004A0000D4D286901F0A8FA0646286901F0A4FA62
:1004B000F3B2012BC1B205D0022B08D053B9074BC0
:1004C000197070BD2046BDE8704002F0D9B9044BE8
:1004D00001221A7070BD00BF548EFF1FC18DFF1F17
:1004E0006C8DFF1F38B5044608460D4605F056FDD5
:1004F000236802465B6820462946984738BD08B500
:10050000FFF7F0FF08BD03F0A3B99DF800100091BC
:1005100003F0A6B938B50446FFF7E4FF05462046C8
:1005200003F04EF9284438BD2D4A1378022B70B5DC
:1005300011462C4C2C4D0BD1012313702B4B002258
:100540001A602B4B1B78012B47D92A482A491CE0FB
:100550001378012B1CD123682A689B1A642B234B28
:1005600004D8266818683044821A00E000221A6015
:100570001A6840F6C3139A422FD900230B701C4B04
:100580001B78012B29D91B481C49FFF7C3FF24E026
:10059000137803F0FF06DBB921682B68CB1A642BB4
:1005A0001BD901231370114B1E60114B1B78012BBB
:1005B00013D913490F48FFF7A2FF2B6821680D4894
:1005C000C91A0A22334603F00BF90A480D49DCE741
:1005D00001231370054B00221A6023682B6070BD45
:1005E0006487FF1FF88EFF1F088EFF1F708DFF1F8F
:1005F000C28DFF1FD08DFF1FD05F0000EC5F000099
:10060000056000002360000038B572B6144D154C2B
:100610002A682368D31A642B1FD9134B1A78022A2D
:1006200019D002221A70114B1B78012B13D91049D3
:100630001048FFF764FF236829680E48C91A0A2288
:10064000002303F0CDF80C490A48FFF763FF09487F
:100650000A49FFF75FFF2B68236062B638BD00BF11
:10066000F88EFF1F088EFF1F6487FF1FC28DFF1FBC
:100670002B600000D08DFF1F476000004D60000020
:1006800030B587B072B60022184C009201920292E7
:10069000174D617B2B782069062203920122049278
:1006A00001F046F92369134AC3F8582262B60120C3
:1006B00002F006F90028FAD02B78002BF7D072B69A
:1006C0000B4B617B1B782069002200920192029201
:1006D000062203920122049201F02AF92369064AB4
:1006E000C3F85C2262B607B030BD00BF548EFF1F56
:1006F000C18DFF1F99040000650400002DE9F3413E
:1007000004460888494D0E4605F016F9484905F09B
:100710001FFA2B780746002B2ED046494648FFF794
:10072000EEFE21784448013103F092F843494248F3
:10073000FFF7E5FE4249384605F056F904F038FD6A
:100740000B460221024600913B48FFF7DEFE3D4981
:100750003948FFF7D4FE31883748FFF7D4FE3A49CD
:100760003548FFF7CCFE40F6FF713348FFF7CBFE6C
:1007700031483649FFF7CEFE2378092B0FD92B7865
:10078000002B4FD032492C48FFF7B9FE0A210A4608
:100790002948002303F024F827482E4917E02E4A61
:1007A000D25C2AB12B78002B3CD023482B490EE099
:1007B0002B49CA5C02F0FF0C002A2ED12948C25CEA
:1007C00042B92AE02B78002B2CD01B482649FFF792
:1007D000A1FE27E0254A12F803804FFA88F8B8F105
:1007E000000FEFDD0125CD54237800F803C0204B26
:1007F000217818681F4B43F821002378D15C013918
:10080000C9B2D1541C4A23783188D05C02F0A4F8D4
:1008100022781A4B43F8227004E02B7813B1064873
:100820001749D4E702B0BDE8F08100BFC28DFF1FB9
:1008300000F07F4574600000D08DFF1F8F600000C6
:100840000000C842A2600000A66000007B620000B9
:10085000A8600000BA6000007E8DFF1FDC60000011
:10086000C38DFF1F748DFF1F0F6100000C8EFF1FD3
:10087000F88EFF1FE08DFF1F4B650000188EFF1FD5
:1008800037610000032813B519D1104C206901F01D
:10089000B3F88DF80300206901F0AEF88DF804007C
:1008A000206901F0A9F88DF80500BDF80430ADF815
:1008B00006300DF103000DF10601FFF71FFF044B99
:1008C0001A68044B1A6002B010BD00BF548EFF1F9F
:1008D000F88EFF1FBC8DFF1F08B5074A0378D05C58
:1008E00001F0DAFC05F02CF8044905F07DF8044924
:1008F00005F02EF908BD00BF416500003433A34167
:1009000000F8FF4573B5002402A8124E00F8014D0F
:10091000FFF7E2FF104B316843F824000F4B012230
:100920001A55054605F01CFA00B1356028460C49F9
:1009300005F016FA0B4B30B100221A550A4B1A7803
:1009400001321A7001E001221A5501340A2CDBD160
:1009500002B070BD888DFF1F908DFF1F748DFF1F2B
:10096000CDCCCC3D7E8DFF1FC08DFF1F70B501200B
:10097000002101F0B3FF0220012101F0AFFF0220AE
:10098000002101F07DFF0D20012101F0A7FF0121D1
:100990000D2001F075FF0D2001F054FC022001F044
:1009A0002DFC0C2001F0E8FE00242E4BE55C01211B
:1009B000284601F093FF28462B4901F0E9FE28461E
:1009C000002101F0C9FF294B00251D55284B3C2271
:1009D0001A5501340A2CE8D12846294601F07EFF39
:1009E00028462449032201F059FEFFF749FE224B15
:1009F0001B7813B1FFF708FEF9E7FFF783FF1F4BE2
:100A00001F49186804F0F0FF4FF07F51054605F0CC
:100A1000A7F908B94FF07F5500241A4EA35D012BAA
:100A20000BD0194B294653F8240005F07BF920B16F
:100A30000223A355154B01221A7001340A2CECD164
:100A4000134B1B78002BFBD0124B134A1B69C3F8C6
:100A50005822124AC3F85C220D200021BDE87040E4
:100A600001F00EBF4B65000000540946C38DFF1F07
:100A70000C8EFF1F290500006487FF1F888DFF1F54
:100A80003333733F7E8DFF1F908DFF1F8C8DFF1FB3
:100A90006C8DFF1F548EFF1F85080000B5120000EB
:100AA00038B5084B08490546186804F09DFF014613
:100AB00028684FF0010405F035F900B90446E0B2AA
:100AC00038BD00BF888DFF1F3333733F70B5154AA3
:100AD00003780225D554144B0126044600201E70CD
:100AE00001F022FE0020314601F0F8FE0020014610
:100AF00001F0C6FE0D4B1D700D4B1B7883B10D49E7
:100B00000D48FFF7FCFC21780B483144FFF7FBFC54
:100B10000A490948FFF7FEFC07480949FFF7FAFCB4
:100B200070BD00BF7E8DFF1F8C8DFF1F6487FF1F70
:100B3000C28DFF1F86600000D08DFF1F6E61000018
:100B40007B61000038B5084B08490546186804F079
:100B50004BFF014628684FF0010405F001F900B988
:100B60000446E0B238BD00BF888DFF1F48E17A3FE0
:100B70002DE9F04385B00446FFF7AEFE584B94F8DC
:100B800000801D68574B039053F82860564907466C
:100B9000284604F01FFE314604F026FF0146284691
:100BA00004F018FE3946814604F014FE294604F08C
:100BB000CFFF4E49064605F0B5F848B130464C49DE
:100BC0004FF0010505F0CCF800B90546EDB200E0A4
:100BD0000546484B012203F80820DFF8588155B933
:100BE000454B1B783BB903A8FFF75AFF002857D0A5
:100BF0002046FFF76BFF98F80030022B6BD93F4976
:100C00003F48FFF77CFC21783D480131FFF77BFC32
:100C10003C493B48FFF77EFC3B493948FFF76FFCF6
:100C2000484604F0C5FA022402460B4600943448B4
:100C3000FFF76BFC35493248FFF76CFC344930480C
:100C4000FFF75DFC384604F0B3FA009402460B4609
:100C50002B48FFF75AFC2D492948FFF75BFC2D492B
:100C60002748FFF74CFC2C49304604F0BDFE04F049
:100C70009FFA009402460B462148FFF746FC2048A5
:100C80002649FFF747FC35BB1D482549FFF742FCC5
:100C9000194B1B78FBB123491948FFF73BFC1AE0BD
:100CA00003A8FFF74FFF0028A5D023781E4A032191
:100CB000D15498F80030002B9DD01C491048FFF704
:100CC0001EFC21780E480131FFF71DFC18490C4825
:100CD000FFF720FC8FE7284605B0BDE8F08300BF92
:100CE000888DFF1F188EFF1FCDCC8C3FCDCC4C3E86
:100CF000CDCC4CBE748DFF1F6487FF1FB661000012
:100D0000D08DFF1FC9610000D9610000B9640000E7
:100D1000ED610000046200000000C84210620000A3
:100D200012620000376200007E8DFF1F86600000A7
:100D3000A6610000C28DFF1F2DE9F7430646047827
:100D4000464DFFF7C9FD45F82400454C96F8009044
:100D5000276855F82910384604F03CFD394604F060
:100D6000F7FE4049074604F0DDFFA846254648B196
:100D700038463D494FF0010404F0F2FF00B9044643
:100D8000E4B200E00446394B012203F809205CB9C3
:100D9000374B1B7843B9307808EB8000FFF780FEB3
:100DA00010B13046FFF792FE324B1B78022B51D91F
:100DB00031493248FFF7A3FB317830480131FFF762
:100DC000A2FB2F492D48FFF7A5FB2E492B48FFF723
:100DD00096FB286804F0ECF9022502460B460095C4
:100DE0002648FFF792FB28492448FFF793FB274941
:100DF0002248FFF784FB337858F8230004F0D8F931
:100E0000009502460B461D48FFF77FFB1E491B4815
:100E1000FFF780FB1E491948FFF771FB1D49384653
:100E200004F0E2FD04F0C4F9009502460B461348B5
:100E3000FFF76BFB11481849FFF76CFB54B90F48DB
:100E40001649FFF767FB0A4B1B781BB10B48144987
:100E5000FFF760FB204603B0BDE8F083908DFF1FD5
:100E6000888DFF1FCDCC4C3ECDCC4CBE748DFF1F6A
:100E70006487FF1FC28DFF1FB6610000D08DFF1F6A
:100E80007D6200008C620000B9640000ED6100002A
:100E9000046200000000C8421062000012620000FC
:100EA0003762000008B50B78032B0BD8DFE803F09E
:100EB00002040608054906E0054904E0054902E088
:100EC000054900E00549FFF71AFB08BD9E620000D6
:100ED000AF620000D1620000E1620000F562000034
:100EE000012908B506D003D3022905D1044904E03D
:100EF000044902E0044900E00449FFF700FB08BD93
:100F000029630000166300001D63000032630000C7
:100F10002DE9F04385B0FFF777FBA54EA54B31686F
:100F20001A68891AB1F57A7F11D302F57A721A60BC
:100F300072B60023A04AD15C49B23B2903DCD15CE4
:100F40000131C9B2D15401330A2BF3D162B672B662
:100F500000252C46DFF8F882984F18F80430E3B1EA
:100F60003B5DDFF85C922BB9326859F80530D31A33
:100F70002C2B2ED8326859F80530D31A592B14D996
:100F8000002108F804108A4B39551A688C4BEA5036
:100F90008C4B185D01F0E0FC07E03B5D2BB9884B02
:100FA0003268EB58D31A9A2B19D801340A2C05F160
:100FB0000405CFD162B6844A1378144603F0FF01CA
:100FC0009BB9824B32681B68D31A132B0DD90D20A5
:100FD0000DE004A800F8014DFFF7CAFDCAE704A818
:100FE00000F8014DFFF7A8FEDFE70D20012101F019
:100FF00047FC02F0A3FA002840F3D68002F05CFA26
:10100000724B32681A60C3B2392B05DC302B41DADF
:101010000D2B08D02F2B04E0532B58D0732B56D018
:101020003F2B40F0BE806A496A48FFF773FA6A496D
:101030006848FFF764FA69496648FFF760FA68494B
:101040006448FFF75CFA67496248FFF763FA614852
:1010500002F0B6FB64495F48FFF751FA634B5D4805
:1010600019781022002302F0BBFB5A4802F0A8FBBB
:10107000584802F0A5FB5E495648FFF74BFA5D4918
:101080005448FFF747FA5C495248FFF743FA514882
:101090005A4916E05A4C5B49303820704D48FFF7EA
:1010A0002EFA23784B485BB15749FFF728FA21788D
:1010B00048480A22002302F093FB4648534900E0C7
:1010C0005349FFF727FA434802F07AFB6CE0514995
:1010D0004048FFF714FA504B3E481978FFF700FFDD
:1010E0003C4802F06DFB23781BB13A484B49FFF7AF
:1010F00011FA4B4937484B4E4B4DFFF700FA4B4B1B
:10110000186804F055F80B46022102460091314858
:10111000FFF7FBF946492F48FFF7FCF92D4802F08D
:101120004FFB00242B484349FFF7E9F9092C03D072
:1011300028482B49FFF7E3F9013421462548FFF7FA
:10114000E2F93D492348FFF7DAF970683B4904F0BA
:10115000E9FD18B11F482249FFF7D1F956F8040FED
:1011600004F026F80B460221024600911948FFF7C9
:10117000CCF933491748FFF7C2F915F8011F154894
:10118000FFF7C1F92F491348FFF7B9F9114829466C
:10119000FFF788FE0F482C49FFF7BCF90A2CC1D194
:1011A00091E70C4829498CE705B0BDE8F08300BF02
:1011B000F88EFF1FB88DFF1F0C8EFF1F748DFF1F51
:1011C000E08DFF1F4B6500008C8DFF1FBC8DFF1F46
:1011D00044630000D08DFF1F5C6300006763000064
:1011E000B6640000736300007C630000C18DFF1FC4
:1011F0008E63000098630000B1630000E3630000A9
:10120000C28DFF1F026400000D6400004A600000F0
:101210001D640000276400006487FF1F3C64000019
:10122000846400008C8DFF1F7D8DFF1F888DFF1F44
:10123000B864000086600000BB640000000020412C
:10124000CB640000A36000007B620000D864000053
:10125000C38DFF1F104A114B116810B51960104B58
:10126000144603F12801206843F8040F8B420A4A10
:10127000F9D10C4B116819600B4C0C4B12681A60B9
:1012800020460021102200F0C9FE4FF47A73A360BB
:10129000074B236010BD00BFF88EFF1FB88DFF1FE6
:1012A000DC8DFF1FBC8DFF1FD08DFF1F088EFF1F21
:1012B000B85F000030B58DB00C238DF801300A23E3
:1012C0008DF80230274B28491B788DF80330274BC7
:1012D000002418688DF8004004F086FB04F04AFDF5
:1012E0000DF11A05ADF8040000AB214A1E49A25CBD
:1012F00023449A711F4A125D1A741F4B53F824003D
:1013000004F072FB04F036FD01340A2C25F8020BC0
:10131000EAD12E221948694600F05CF8184B1A6889
:10132000184B1A60184B1B780546CBB12E2817D0E6
:1013300016491748FFF7E3F8224600232E211448E8
:1013400002F04EFA13491248FFF7D9F8294610481F
:101350002246002302F044FA0D480F49FFF7DAF85D
:101360000DB030BDC08DFF1F00007A44888DFF1F77
:101370007E8DFF1F0C8EFF1F908DFF1F548EFF1F51
:10138000F88EFF1FBC8DFF1FC28DFF1FEC64000095
:10139000D08DFF1F15650000396500000369D3F883
:1013A0003801D3F83431C01A704770470369D3F855
:1013B0004422B2F5817F09D8D3F84422501CC3F8E7
:1013C00044021344012083F83C1170470123037148
:1013D0000020704730B50469D4F84432B3F5817FFA
:1013E0001DD8D4F84432D4F84452C3F58173013384
:1013F0002C449A4204F59E7402D9012202711A46C5
:101400000023934203D0CD5CE5540133F9E7026930
:10141000D2F844121944C2F84412184630BD0123D0
:101420000371002030BDFFFF38B5094B036003692D
:1014300093F84822022A044608D1D3F860522DB10D
:10144000284602F0A3F9284602F094FA204638BD57
:1014500060650000002210B502710273064A026046
:101460004FF47A74054A84604FF41A74417304FB94
:101470000121016110BD00BF606500006887FF1F8A
:10148000F8B5C3681B789B0604460E4600F19A80A7
:10149000836880211970C3681221197090F849324D
:1014A000012B03D01AB980F8482200E01A46531ED7
:1014B000012B00F2898016B94FF0807103E0012EF4
:1014C00003D14FF00071414B1960022A76D1D4F854
:1014D000605245B9082002F04BFA2946074602F04F
:1014E00001F9C4F86072D4F8605265B12B79102B01
:1014F00009D1284602F04AF9284602F03BFA0023B7
:10150000C4F860325AE046BB2B6831489A8B998BFD
:1015100092B242F008029A832A792E4B02F110010E
:1015200043F8210053119B0003F1604303F561432D
:10153000012102F01F0201FA02F21A602B689A8B55
:10154000998B92B242F002029A832B7903F1804385
:1015500003F5043396221E7028E0012E27D12B6854
:101560001D489A8B998B92B242F008029A832A798D
:10157000184B02F1100143F8210053119B0003F1B5
:10158000604303F5614302F01F0296401E602B6822
:101590009A8B998B92B242F002029A832B7903F1D3
:1015A000804303F5043300221A7097221A70002337
:1015B00084F85632022384F8483205E0012084F88A
:1015C0004802F8BD0020F8BD0120F8BD00E100E0B0
:1015D000151F00000082FF1F211F00008C4B994245
:1015E00010B5436804461BD10D2A15D8DFE802F078
:1015F0002628072C090B57595B0D0F6111635521E4
:1016000044E0192142E0132140E006213EE005219B
:101610003CE00120187053E0002018700D224FE0CC
:101620007C48814222D10C2A1CD8DFE802F007094D
:101630000B0D0F111315173E194244002C2125E004
:10164000242123E01E2121E04F211FE015211DE070
:101650000F211BE00E2119E00C2117E00A2115E0F3
:10166000042113E0002018700C2229E06A4881420E
:1016700029D10B2A21D8DFE802F006080C0E10123F
:101680001416181A1C1E272100E05A211970012077
:1016900016E01C21FAE78521F8E71421F6E7452139
:1016A000F4E70D21F2E70B21F0E70921EEE7032132
:1016B000ECE70221EAE70021E8E7002018700B229E
:1016C000A36904218EE05548814224D1092A1CD8FF
:1016D000DFE802F005070B0D0F11131517199521FF
:1016E00000E055211970012012E08521FAE715214B
:1016F000F8E74521F6E70C21F4E70A21F2E7052196
:10170000F0E70221EEE70021ECE700201870092243
:10171000A369032166E0424881421FD1072A17D8F6
:10172000DFE802F004060A0C0E1012141F2100E07C
:101730008521197001200EE01421FAE74521F8E710
:101740000B21F6E70521F4E70221F2E70021F0E79B
:10175000002018700722A369022143E0314881422A
:1017600010D1052A0AD8DFE802F00305071D21235E
:101770001D2118E0142116E0432114E00020187008
:1017800005221AE0284881421AD1032A12D801A161
:1017900051F822F075170000A5170000AD170000E2
:1017A000B11700000B211970012006E00321FAE7B0
:1017B0000021F8E7002018700322A369012111E03D
:1017C0001A48814210D122B1012A4FF0000101D004
:1017D00003E00B211970012002E0197000200122A2
:1017E000A369002119700FE0114881424FF00000F9
:1017F000187007D10AB9012000E00020A369002277
:101800001A7001E0A369187084F84C2210BD00BF63
:1018100000879303007E5603006CDC020051250212
:1018200000366E010024F40000127A0000093D0029
:1018300080841E00F8B51C469DF8183005462BB173
:10184000C0680078800601D50020F8BD002C40F269
:10185000032640F2646040F2036708BF4FF4197634
:1018600008BF074685F84B4271BB012A14D173B1FA
:10187000002C14BF02210021122001F02FF8002CAF
:101880004FF0130014BF0221002101F027F80123BB
:1018900085F84A32224B13E073B1002C14BF0221A9
:1018A0000021112001F01AF8002C4FF0100014BF95
:1018B0000221002101F012F8002385F84A32194B69
:1018C0001E6043F8046C29E0012927D1042A13D1B2
:1018D0005BB1002C14BF022400241E20214600F01E
:1018E000FDFF1D20214600F0F9FF042385F84A3250
:1018F0000D4B1F605F6011E05BB1002C14BF022430
:1019000000241F20214600F0E9FF1A20214600F0A4
:10191000E5FF032385F84A32044BD1E70120F8BDE7
:1019200004A004400CA0044000D004402CB00440AB
:10193000F7B5044616469DF820009DF82C700D461C
:1019400021B92A4A116841F0400105E0012904D17A
:10195000264A116841F080011160002284F84E226D
:1019600084F84962626936B92023137023681E70B7
:10197000E3691E7015E000280CBF2021282111709A
:10198000216801D0834201D25A0000E04200D2B265
:101990000A70E26920B1834234BF40005800C0B2EF
:1019A00010700023294600939DF824209DF82830CC
:1019B0002046FFF73FFF94F84A32022B0CBF0C4938
:1019C0000C493A462046FFF709FE9DF83020204694
:1019D0002946FFF755FD94F84922A3680AB98022E9
:1019E00000E0C0221A7003B0F0BD00BF3480044094
:1019F00000A24A0400512502D0F83421D0F8383131
:101A00009A4208D2D0F834315A1CC0F83421184414
:101A100090F8300070474FF0FF3070470069FFF7D3
:101A2000EBBFD0F83421D0F838319A423DBFD0F81E
:101A30003431C01890F830004FF0FF307047006923
:101A4000FFF7EFBF38B5C268836815781978C9B257
:101A500004468806EDB217D5C9060AD594F8561281
:101A6000022900F0C38094F85612032940F0C58083
:101A7000BCE094F85622022A00F09D8194F8562288
:101A8000032A40F0788196E115F0100F05F040032D
:101A900004D010201070002B00F0A48003F0FF028F
:101AA000002B53D094F84E320A2B04D1D4F858327C
:101AB000002B40F0208205F0040505F0FF03F5B18E
:101AC000092384F84E320023C4F84432A368D0229C
:101AD0001A7023691B785B0884F84F32D4F85C32A3
:101AE00003B19847D4F844320BB984F83C312369E8
:101AF00094F83C211A700123C4F8403272E094F843
:101B00004A2284F854320AB9122002E0012A02D192
:101B10001120B34908E0032A02D11E20B14904E094
:101B2000042A04D1AF491F20032200F0B7FD0A2385
:101B300084F84E320023C4F83831A368C0221A70EA
:101B400023691B785B0884F84F324BE001F01001E9
:101B500001F0FF03F1B115F0010513D1D4F84022D3
:101B6000D4F844329A4207D2D4F840325A1C234463
:101B7000C4F8402293F83C5123691D70A368D02219
:101B80001A702FE0A368C021197023691B7884F8AC
:101B90004E2227E094F84A2284F854320AB91220DF
:101BA00002E0012A02D111208D4908E0032A02D166
:101BB0001E208C4904E0042A04D18A491F200322F4
:101BC00000F06CFD23691A78D4F83831B3F5817FC1
:101BD000D2B207D8D4F83831591C2344C4F838118C
:101BE00083F83020E36802221A7038BDD4F86032DE
:101BF0001968898B090643D592E094F84E22012A90
:101C000057D105F0100202F0FF016AB1002207214E
:101C100084F8562284F84E1280211970E36812214C
:101C20001970C4F8402238BD15F001050AD084F8B7
:101C30005612D4F84022002A4CD0062284F84E22B4
:101C400080229DE7D4F840220132C4F84022D4F823
:101C500044128A4202D384F84E525BE094F8562232
:101C6000012A1FD1022284F85622F1221A70D4F8D8
:101C700060321A795C4B1A70236994F83D217FE732
:101C800094F85612032955D111780806FCD51A7913
:101C9000564B1A70002384F85632D4F84432013B74
:101CA000C4F84032D4F840222369224492F83C21FF
:101CB00066E794F84E22D2B2022A27D1E90607D568
:101CC000072284F84E2280221A70E36812228BE7E2
:101CD000E80701D50522B1E794F85612012908D189
:101CE00084F85622E1221A70D4F860321A793E4BF9
:101CF00008E0032284F84E22D4F85022012A0CBFB7
:101D0000E822E0221A7023691B786BE794F84E22D0
:101D1000042A95D194F84D22012A91D0B0222FE7C0
:101D200094F856120229ABD11A79314B1A70A36874
:101D3000F02250E02F4A1B7912680121994011428C
:101D40003FF450AF2A4A1370D4F860321A792A4B04
:101D50001A700023EA0684F856327FF543AF072253
:101D600084F84E22A26880211170E268122111705D
:101D7000C4F8403238BDD4F83811D4F850220231BA
:101D800091427BD094F84E22042A03D194F8552234
:101D9000002A73D0D4F83821D4F8503201329A4254
:101DA00080F0878094F84E32042B6AD194F8553233
:101DB000002B7ED165E0D4F860321A681B79928BD3
:101DC00012F0800F1AD094F85622022A16D1084A2F
:101DD0001370A368E8221A70032384F8563201E7CF
:101DE000C11F0000CD1F00001B8000401C80004070
:101DF0001F8000402C8000401E80004094F8562236
:101E0000032A26D13F4A1370002384F8563294F8EF
:101E10004E22042A18BF84F84E32A368B0221A70EA
:101E2000D4F85032013BC4F83831D4F838315A1C58
:101E3000C4F8382122692344127883F8302094F8BA
:101E40004D32012B7FF4CEAE1823013B7FF4FDAF62
:101E500012E02D4A01211268994011423FF4C2AEAE
:101E60002A4A1370D4F860321A79294B1A70002369
:101E700084F8563284F84E32A368E1E6E8221A70FC
:101E800088E7D4F838315A1CC4F838212269234431
:101E9000127883F8302094F84E32042B7FF4A2AEEF
:101EA00094F85532002B7FF49DAE012384F855320F
:101EB00098E694F84E220023042A84F8553201D083
:101EC00084F84E32A368B0221A70D4F838315A1C04
:101ED000C4F8382122692344127883F8302094F81A
:101EE0004D32012BD7D11823013B7FF4FDAFA368FE
:101EF00080221A70CFE70022C4F83421D4F83801C8
:101F00009847D8E51C8000402C8000401E8000408F
:101F10001F80004001480021FFF794BD6887FF1F24
:101F200001480121FFF78EBDD089FF1F10B5C3689E
:101F30001B7803F02003044603F0FF02EBB990F88E
:101F40004A3280F84E220BB912200AE0012B01D14F
:101F5000112006E0032B01D11E2002E0042B02D148
:101F60001F2000F0E1FBD4F858323BB30022C4F844
:101F70003421D4F83801984710BD90F85432013319
:101F8000DBB2012B80F8543204D890F84932012B8F
:101F900000D110BD94F84A320BB912200AE0012B8F
:101FA00008BF112006D0032B08BF1E2002D0042B2F
:101FB00004D11F20BDE8104000F0B6BB10BDFFFFEC
:101FC00001480021FFF7B2BF6887FF1F01480121C8
:101FD000FFF7ACBFD089FF1F70B50C4E0C4D0D4CF8
:101FE00030460021FFF736FA30460B4E224629468E
:101FF00003F0E0FE30460121FFF72CFA3046294677
:102000002246BDE8704003F0D5BE00BF548EFF1FCE
:10201000291400006087FF1F408EFF1F01B5EAB141
:10202000102A17DB00F0070333B1C3F10803D21AFB
:10203000013B00F8011BFBDCC9B241EA012141EA86
:1020400001418C46D308013BE0E8021CFBDC12F0A6
:10205000070203D0013A00F8011BFBDC01BD00BF01
:10206000F0B5304B1B681B06FBD42F4B1B6813F0DD
:102070008002F6D172B62D4B1978002950D02C4928
:1020800008684F688E68CD680C6938441431304454
:102090000968284420440844C0F34E00254940F410
:1020A00000400860C86A0F6B4E6B8D6BCC6B384478
:1020B000403130440968284420440844C0F34E00AD
:1020C0001D4940F40040086001F10811143151F835
:1020D000140C51F8107C51F80C6C51F8085C51F854
:1020E000044C096838443044284420440844C0F370
:1020F0004E00124940F400400860C86A0F6B4E6BF6
:102100008D6BCC6B384440313044096828442044FE
:102110000844C0F34E000A4940F4004008601A70B9
:1021200062B6F0BD24B0034024B00B40698EFF1F9F
:1021300038B003402CB0034030B003402CB00B400B
:1021400030B00B4010B5204B2048214960221A7056
:10215000E1225A701F4B204A1C78204B082C01D1D9
:10216000012402E00A2C03D119240460132005E0A5
:102170000C2C0CBF15243D24046012200860146050
:102180001860174B17491B78174A03B101230B60DE
:102190001360164B164A1978164B012901D8802175
:1021A0000BE0042901D8842107E0082901D8852102
:1021B00003E0102994BF86218721116019600E4B1E
:1021C00001221A7010BD00BF0040074008B0034054
:1021D0000CB00340388CFF1F08B00B400CB00B4014
:1021E0006C8EFF1F20B0034020B00B40398CFF1FC6
:1021F00024B0034024B00B40698EFF1F0E4B1A78A9
:1022000060B1BAB9012119700C4B1B7823B10C4B8A
:102210001A6003F500231A60FFF794BF52B11870DB
:10222000064B1B78002BF7D0054B186003F50023F5
:102230001860F1E7704700BF6C8EFF1F698EFF1FAB
:1022400024B003400C2804D9102828BF10201023E4
:1022500007E00A2804D8092834BF08230A2300E02D
:102260000C23094AD9B2081A1070084A1078834220
:1022700008D0074B11701B7813B1064B00221A606F
:10228000FFF760BF704700BF688EFF1F388CFF1FCD
:10229000698EFF1F24B003400D2838B50FD91728C9
:1022A00001D80E380AE0A0F11A03052B01D809382D
:1022B00004E0A0F12203062B47D81838C0B2244B03
:1022C0001C5C244B1B780BB1FFF7CAFE210614D40B
:1022D00072B6214B214D1C6001232B7062B672B681
:1022E0001D4B1B681A0601D51D4B1FE02B78002BD8
:1022F000EFD062B601F040FBF1E772B6194B1A4D10
:102300001A6814F0400F14BF22F0100242F01002BD
:102310001A60164B04F03F021A6001232B7062B65C
:1023200072B6124B1B681B0608D5114B18680023A8
:102330002B7062B60F4B1B78184138BD2B78002BE1
:10234000DCD062B601F018FBEAE7002038BD00BF20
:1023500078650000698EFF1F00B003406B8EFF1F81
:1023600010B003400CB00B406A8EFF1F00B00B4052
:1023700010B00B40688EFF1F084B1A6842F4805261
:102380001A60074B1A78074B0AB1802200E0C0227E
:102390001A70054B80F30C00188070472C800440A5
:1023A0006C8EFF1F21C00C4000C00C40024B1A680D
:1023B00001321A60704700BFF88EFF1F08B50B4C42
:1023C0002368580301D500F0F9FC2368590501D5AD
:1023D00001F0BEFD23681A0501D502F0E5F8236877
:1023E000DB04ECD502F038FBE9E700BF34800440A1
:1023F00008B5FFF7E3FFFFFF014B10221A8070477B
:10240000002005407047FFFF024A1368184410601F
:10241000184670473C8CFF1FEFF313839BB9EFF313
:10242000108098B9EFF3058323B10F2B04D9084A24
:10243000985C01E04FF48070EFF311833BB183426D
:1024400038BF184670474FF0FF3070471846704746
:10245000F0E300E01F4B10B51C681C60E00304D5DE
:102460001D4B1A680AB11B689847A10304D51A4B83
:102470005A680AB15B689847E20704D5164B1A6C94
:102480000AB11B6C9847A30704D5134B5A6C0AB1C9
:102490005B6C9847200704D50F4B9A6C0AB19B6C74
:1024A0009847610704D50C4BDA6C0AB1DB6C98478E
:1024B000220304D5084B5A6E0AB15B6E984763033A
:1024C00006D5054BD3F8802012B1D3F88030984759
:1024D00010BD00BFA0A00440708EFF1F2C4B10B594
:1024E0001C681C60200704D52A4B5A6A0AB15B6A33
:1024F0009847E10604D5274B9A6A0AB19B6A984728
:10250000620604D5234BDA6A0AB1DB6A98472306D0
:1025100004D5204B1A6B0AB11B6B9847A00604D553
:102520001C4B5A6B0AB15B6B9847E10704D5194BFA
:10253000DA6B0AB1DB6B9847A20704D5154B9A6D8D
:102540000AB19B6D9847630704D5124BDA6D0AB147
:10255000DB6D9847A00504D50E4BDA6E0AB1DB6E31
:102560009847E10504D50B4B1A6F0AB11B6F9847CA
:10257000620504D5074B5A6F0AB15B6F9847230574
:1025800004D5044B9A6F0AB19B6F984710BD00BFEA
:10259000A0B00440708EFF1F1E4B10B51C681C605D
:1025A000E00704D51C4B9A680AB19B68984721063E
:1025B00004D5194B5A690AB15B699847E20604D5FC
:1025C000154B9A690AB19B699847630704D5124B6A
:1025D000DA690AB1DB699847200704D50E4B1A6AFD
:1025E0000AB11B6A9847A10704D50B4B9A6B0AB135
:1025F0009B6B9847A20604D5074B1A6D0AB11B6D59
:102600009847630604D5044B5A6D0AB15B6D984731
:1026100010BD00BFA0C00440708EFF1F114B10B54D
:102620001C681C60E00404D50F4BDA680AB1DB6853
:102630009847A10404D50C4B1A690AB11B69984745
:10264000A20604D5084B1A6E0AB11B6E9847E30622
:1026500006D5054BD3F8842012B1D3F884309847BF
:1026600010BD00BFA0900440708EFF1F094B10B535
:102670001C681C60A20704D5074B9A6E0AB19B6EBA
:102680009847E30704D5044BDA6F0AB1DB6F98472C
:1026900010BD00BFA0D00440708EFF1F212830B5B0
:1026A00031D8042A2FD8DFE802F00709050B030010
:1026B0000B2306E00A2304E0082302E00C2300E0D9
:1026C0000923114A114D02EBC0025468104AC2F8A6
:1026D0009C51104DC2F8A0510F4DC2F8A4510F4D9E
:1026E000C2F8A8510E4DC2F8AC5172B622680D4D19
:1026F00022F47022226042F0807242EA034345F8DD
:102700002010236062B630BD906500001D260000D9
:102710000082FF1F55240000DD24000099250000E1
:102720006D260000708EFF1F094B03EBC0035A6833
:1027300072B6136823F0877323F4803343F08073F9
:102740001360044B002243F8202062B6704700BF9C
:1027500090650000708EFF1F044B054900221A602F
:102760000A60044A106010221A60704714D00340B7
:1027700004D0034000D0034018B1102828BF102017
:1027800000E00120014B1870704700BF408CFF1F14
:102790002DE9F04105460E4608462E4903F0C2FADF
:1027A0002D4B002847F6122814BF0227012708BF27
:1027B0009846002428FA04F003F0BEF84FF05E516A
:1027C00003F012F90146304603F0C0FA10B90134A3
:1027D000072CEFD128FA04F003F0AEF8314603F0ED
:1027E000B7F94FF07C5102F0F5FF03F0C3FA4FF652
:1027F000FF73984228BF1846EB1E012B06D8174BD3
:10280000174900221A600A60164A1BE0A5F1090365
:10281000012B06D9A5F11403032B02D96B1F012B41
:1028200006D8114B114900221A600A60104A09E0CB
:10283000202D01D0192D0BD10E4B0F4900221A600B
:102840000A600E4A04F0070444EAC70710601F60DC
:10285000BDE8F081405489400051250200900340BA
:10286000049003400890034000800340048003402C
:102870000880034000800B4004800B4008800B4020
:10288000212810B518D80D4A52F8303093F88042FC
:102890003CB1012211B183F8802010BD83F80021E2
:1028A00010BD02EBC00043681A6811B142F0030288
:1028B00001E022F002021A6010BD00BF9065000026
:1028C000212806D8044B53F8303093F80002C0B2E8
:1028D00070470020704700BF90650000212810B5A8
:1028E00037D81C4A02EBC00301295B68144601D0AB
:1028F00004290FD154F83020012082F880024FF4CF
:10290000A2721A601A6804290CBF42F0200222F059
:1029100020021DE052F83020002082F8800211B120
:102920008A1E012A12D84FF4807202291A6003D13C
:102930001A6842F003020BE003290AD11A6842F038
:1029400002021A601A6822F0010201E040F203124A
:102950001A6010BD90650000282838B5604A04460A
:102960000B4611D112780B2A04D8C2F10C0201FADD
:1029700002F304E00C2A1CBF0C3A41FA02F3184699
:10298000BDE83840FFF7F8BC11780125002B05FAA7
:1029900001F2D8BF002102DD934205D32946FFF79B
:1029A0006FFF2046294697E00338C2B2012A01D8BA
:1029B0004C4A06E0202C01D0192C01D14A4A00E0F3
:1029C0004A4A126802FB0332CA401D287BD8DFE85E
:1029D00000F0575F4E337A7A212A7A7A7A7A7A7AB5
:1029E0007A7A7A3C450F187A707A7A7A7A7A7A67A4
:1029F0003F4B1A6003F5973340F2444203F5FA73F4
:102A00005FE03C4B1A6003F5973340F2444203F514
:102A1000F87356E0384B1A6003F5973340F244429E
:102A200003F5F6734DE0354B1A6003F5973340F22A
:102A3000444203F5F47344E0314B1A6003F59F33CD
:102A400040F2444203F5F0733BE02E4B1A6003F56D
:102A50009F3340F2444203F5EE7332E02A4B1A6092
:102A600003F59F3340F2444203F5EC7329E0274B12
:102A70001A6003F59F3340F2444203F5EA7320E005
:102A8000234B1A6003F580334FF45172203318E062
:102A9000204B1A6003F580334FF451721C3310E061
:102AA0001D4B1A60A3F5DB234FF45172A3F5F963B4
:102AB00007E01A4B1A60A3F5DB234FF45172A3F21F
:102AC000CC731A6038BD7F2B2046D4BF0021012172
:102AD000FFF7D6FE20460121BDE83840FFF7FEBED5
:102AE000408CFF1F0890034008800B400880034083
:102AF000108003401880034020800340288003405A
:102B000030800340388003404080034048800340C9
:102B1000109003401890034010800B4018800B4029
:102B200072B60C4B0C491A680C4B1B68096862B6EC
:102B3000490102D5322A88BF0133C2F58C324821BF
:102B400002F23F12B2FBF1F24FF47A7000FB032065
:102B5000704700BF18E000E004ED00E0F88EFF1FB2
:102B600038B50446FFF7DCFF054624B938BD013C03
:102B70000AD005F57A75FFF7D3FF401BB0F57A7FD1
:102B8000F5D200F0F9FEF6E738BDFFFF1F4B4FF41A
:102B9000000210B51A604FF080721A604FF0007298
:102BA0001A604FF080621A604FF000621A60184B92
:102BB000184A194C002048F6FF7118605960282304
:102BC0001360936013619361136293621363936361
:102BD0000922226004F58054043420606160A360FF
:102BE000236144F8042C04F5FE2420600B480160A6
:102BF0000B490B608B600B4B1A60FFF7A3FAFA20AE
:102C0000FFF7AEFFBDE8104000F0D6BB08E100E0E2
:102C1000048003400C8003400080034008800B4088
:102C20000C800B4000800B40F0B50C4B0C4C1A781C
:102C300042F0020504EBC50682F00102706009480B
:102C40001A700678002E0CBF8827C82786F0010668
:102C500047EA0141067044F83510F0BD648FFF1F4C
:102C60000080FF1FDC8FFF1F431E032B10B510D801
:102C700072B6094A52F8230048B1416842F823105D
:102C8000064A018832F81340611A22F8131062B61E
:102C900010BD002010BD00BF548FFF1FC091FF1F4B
:102CA000013803280AD872B6054B53F820300020AB
:102CB00013B101305B68FBE762B6704700207047D4
:102CC000A88FFF1F10B572B60123174A1A4412F8D5
:102CD000012C12071CD59900144A52F831402CB926
:102CE00002EB431308305860114B09E041F0010139
:102CF00052F8314064B902EBC103083058600D4B03
:102D000042F831300C4B1A78013A1A7062B610BD95
:102D10000133052BD9D162B6074B00221A70BDE8EA
:102D2000104000F0A7BB00BFA26600000080FF1F9C
:102D300088004000C8004000D28FFF1F431E032BB5
:102D400030B532D8194A400140F01000104472B634
:102D5000174CE25C032A09D8DFE802F016021805D6
:102D60000830022213E00830042210E01148124A11
:102D700050F8234014B940F8231002E052F8230021
:102D8000416042F823100FE0032200E00522E254E4
:102D900010F0080F01F108030A8843600CBF882374
:102DA000C82343EA0243036062B630BD0080FF1FC0
:102DB000108FFF1FA88FFF1FB88FFF1F2DE9F84F3F
:102DC000AB4F3C78E4B214F0040F3D4619D0A94B48
:102DD0001B78A3B1A84A117801F0FF0321B1013B90
:102DE000DBB2137003B900BEA44A117801F0FF03EF
:102DF00029B1013BDBB213700BB900F04FFC042387
:102E00003B7004F0080303F0FF02002B00F0678220
:102E10009B4B9C4C1A78D2B215094FEA920840F0AD
:102E2000E48104EBC803596854F83830C3F38303D2
:102E3000013B0C2B00F2D681DFE813F095019501E0
:102E4000D401D401D401D401D401D401B001D401FE
:102E5000D401D4010D008C4D0A684B688B486B601F
:102E600001218B4B44F838302A60DFF85082017022
:102E700092B240F2816000238242C8F800302361A0
:102E8000A36117D8B2F5D06F80F01E81B2F5817FB3
:102E900000F0CF8006D8802A00F0BA80822A00F0A5
:102EA000BB8031E140F202339A4200F0D180B2F5AA
:102EB000A06F1CE042F22100824200F051810ED846
:102EC000B2F5086F00F09E80B2F5106F40F01C81E3
:102ED000684B6C4EAA781A7006F180090AE042F23B
:102EE00021218A4200F0088142F221339A4200F007
:102EF0000F8109E1336A1B0603D5706A083800F0B8
:102F0000B9FA08364E45F5D10026B146DFF8B0A132
:102F100056F80A0028B1D0F804B000F0ABFA5846D1
:102F2000F8E74AF806005B4BDFF898A1F05056F836
:102F30000A0028B1D0F804B000F09CFA5846F8E72F
:102F4000554B4AF80600F050544B23F81900544BE7
:102F500019F80320023A032A08D8DFE802F0020435
:102F60000204002200E0012203F8092009F101090E
:102F7000B9F1040F06F10406C8D14A4B00221A70B9
:102F800001269A46484A494B3244334412F8012CF0
:102F90009B0012F0080F1A704FEA860925D000F046
:102FA0004BFA38B104EB461308305860404B44F8F4
:102FB000393006E09AF8003044F8390001338AF8D5
:102FC000003000F039FA49F0010338B104EBC302D4
:102FD000083050602E4A44F8332006E044F83300AD
:102FE0009AF8003001338AF8003049F002020136C5
:102FF00049F003090023052E44F8323044F83930F3
:10300000C0D186E01B4B2B4C1B7823700B4683E012
:10301000284C237063707EE0AA88042A74D8254C5B
:10302000920023706370244B9B5C9E0773D52170C4
:1030300071E0AA8802F07F02042A65DC6B88002B0D
:1030400062D191001C4A0A44117821F0020159E032
:10305000AA8802F07F02042A56DC6B88002B53D129
:103060009100154A0A44117841F002014AE000BF7C
:1030700080200740DB8FFF1F658FFF1FDD8FFF1F45
:10308000902007400080FF1FC88FFF1FDC8FFF1FAD
:10309000C8004000008FFF1FB88FFF1FC091FF1FA7
:1030A000108FFF1FD28FFF1FA266000030C80110D3
:1030B00088004000D38FFF1FC0200740FC8EFF1FF9
:1030C000548FFF1FA88FFF1F6A88A9889F4B53F852
:1030D000084CA3F10C00BCB133F80C6C964209D13A
:1030E00033F80A6C8E4205D1120A032A0CBF2378EA
:1030F000038911E00C33EAE7954A1168954A11609B
:10310000A978954A117004E0944B0F221A7027E0B9
:1031100000231C4600E00223EE88B34238BF1E465F
:10312000402E34BF3546402520462946FFF77CFD1A
:10313000761B2C4403D1402D12D1354603E0402E9E
:1031400034BF3546402520462946FFF76DFD761BE6
:103150002C4401D1402D03D1814AC8F8004016808B
:103160000122804B3DE0804B1A8842F221039A42B3
:1031700010D100237D4AC85C98540133072BF9D144
:103180001368862B02D17A4B0F221A700020014659
:10319000FFF74AFD774B44F8383023E0764E356828
:1031A000B5B1DFF8BC81B8F80090B9F1400F34BF79
:1031B0004C46402428462146FFF736FDC4EB090360
:1031C0009BB2A8F800300BB9402C00D12B1933600A
:1031D000654B1A88B2F5A06F04D100225A709A7814
:1031E000664B1A7001225F4B6CE004EBC806013D90
:1031F000736802F00802A3F10800EDB202F0FF01CB
:10320000002A36D000F036F95D485E4B50F8252094
:10321000EAB1516840F8251002F108017160595D6A
:1032200003290BD8DFE801F002040608032104E0BB
:10323000022102E0052100E00421595516F0080F93
:1032400012880CBF8823C82343EA024342E05A5D38
:10325000032A07D8DFE802F040400204002206E01B
:10326000012204E016F0080F0CBF022203225A5577
:1032700032E054F83820120C23F8082C22B3DFF87F
:1032800034E123F8061C43F8041C5EF825303E495F
:1032900013B94EF8250002E051F8253058603B4B39
:1032A00041F8250033F815100A4423F8152000F0E2
:1032B000C3F810B10830706006E0354B44F83800B0
:1032C0001A7801321A7007E02A4B324A16F0080FBA
:1032D00008BF134644F8383008233B7070E5E00718
:1032E0001FD520492B482C4C02230B702B4B1A70F6
:1032F0002B4B186098602B48D8601A619A615C600B
:10330000164B0D2018702848FF2303702B70027491
:10331000264A1370264B9F221A7001230B70BDE8BA
:10332000F88F210604D50D4B0D221A7080232B70C7
:10333000A20705D51C4B1A78D2B21A7002232B7043
:10334000E30644BF10232B70BDE8F88FB46600007D
:10335000F88EFF1FD091FF1FEC8FFF1FC02007408A
:10336000D08FFF1F94200740C88FFF1FC891FF1FF9
:10337000658FFF1FC8004000FC8EFF1F982007408C
:10338000A88FFF1F108FFF1F008FFF1FC091FF1F0F
:10339000D28FFF1F88004000148FFF1F648FFF1F14
:1033A0000080FF1F688FFF1F882007408C20074088
:1033B00084200740548FFF1F08B501F0B5FB0022A1
:1033C0001A4B0021D15098180832882A4160F7D151
:1033D000174A106840F48020106002F528326832E5
:1033E000C3F307201070C3F307401B0E107513764C
:1033F000FF2302F81C3C02F8143C02F88C3C012329
:1034000002F8083C82F8641002F8183C094B70225C
:103410006FF450711A700B444FF400721A6003F18C
:10342000C04303F5C82310221A7008BD0080FF1F97
:103430003480044049E400E072B60C4A1168B1FAE5
:1034400081F30B2B02D962B6002070474FF0004089
:10345000D84021EA0001116062B605494822534371
:10346000C8180022CA504260704700BF448CFF1F3A
:103470000084FF1F0C4B4822C31AB3FBF2F30B2B43
:1034800011D80A4A127822B1094A12780AB1FFF714
:1034900019BC72B6074A4FF0004121FA03F31168D4
:1034A0001943116062B670470084FF1FD28FFF1F5F
:1034B000DB8FFF1F448CFF1F10B5104C23686BB1CE
:1034C00020684288531C0244147A0288934212D323
:1034D000FFF7D0FF094B00221A600DE0084B1B7864
:1034E00013B94FF0FF3010BD0320FFF7BDFB206084
:1034F0000028E5D1F5E74380204610BDE88FFF1F87
:10350000DB8FFF1F10B50B4C236813B123686BB919
:1035100002E0094B1B7813B94FF0FF3010BD0320B8
:10352000FFF7A2FB20600028F0D1F5E75A8813448A
:10353000187A10BDE88FFF1FDB8FFF1F044B9888A0
:10354000044B1B681BB11A885B88D31A1844704758
:10355000C091FF1FE88FFF1F2DE9F8432D4E012377
:1035600007460C463370002C4FD02B4D2B68A946D4
:103570002BBB48F60148294B1B7803F0FF020BB91F
:10358000327015E00420FFF78BFB072808D80123D1
:103590003370FFF751FFC9F8000080B91D4B187058
:1035A000B8F101081E4B01D01A782AB101221A7015
:1035B0004FF0FF30BDE8F88300F0DEF9DBE7296863
:1035C000174A488800231370C0F14002944238BF64
:1035D000224600F1080C10448C444880A41A9342FF
:1035E00004D0F85C0CF803000133F8E71F444B8863
:1035F0003F2B06D940230B800420FFF79FFB0023BD
:103600002B60084B05221A70ADE734702046BDE8E8
:10361000F88300BFDE8FFF1FE08FFF1FDB8FFF1FD0
:10362000E48FFF1FDD8FFF1F07B502AB012103F8F9
:10363000010D1846FFF790FF03B05DF804FBFFFF94
:103640002DE9F041114B1B78F3B1114E114B346849
:10365000114D01271F7098464CB1002763882F70C9
:10366000042023802146FFF769FB376009E0FFF75C
:10367000E3FE014620B104202C70FFF75FFB00E061
:103680002F70002388F80030BDE8F081DB8FFF1F2A
:10369000E08FFF1FDE8FFF1FDD8FFF1F38B50E4B42
:1036A0001B7803F0FF05ABB90C4C216831B14B8896
:1036B0000B800420FFF742FB256038BDFFF7BCFEFE
:1036C000014620B10420BDE83840FFF737BB044B6A
:1036D00001221A7038BD00BFDE8FFF1FE08FFF1F71
:1036E000DD8FFF1F30B572B6254C09B9026812B9DB
:1036F000218800230FE003790F2BF9D82188194185
:10370000C907F5D503F1007303F59063B2EB431FCE
:10371000EED162B630BD41FA03F212F0010227D1B8
:1037200001259D402943218062B6164CD9B2017112
:10373000256845F00205256054F8045C03F1007328
:1037400045F0020544F8045C03F590630E4C5B0100
:1037500082252560A176A1772176E17703601A6042
:103760005A609A60DA601A615A619A61DA6130BD12
:103770000133102BCFD162B600220260037130BD3D
:10378000EE8FFF1F408004400080004003790F2B24
:1037900010D8094A137072B6084B0279012101FA58
:1037A00002F2198821EA02021A8062B6102303711C
:1037B00000230360704700BF1A800040EE8FFF1F98
:1037C00007B5064B1B88ADF80430036801A95B6898
:1037D0000222984703B05DF804FB00BFA06600001A
:1037E00070B505468AB022B90368C9B21B6898470C
:1037F0002CE0012A08BF0A2221B930228DF82520A9
:10380000212413E02124B1FBF2F002FB1011C9B214
:1038100009290AAE94BF303137312644C9B206F8BF
:10382000241C014610B1013CE4B2ECE733B1013C89
:10383000E4B20AAB23442D2203F8242C2B6801A9FF
:103840005B6828462144C4F1220298470AB070BD43
:103850000029BABF49422D2300230A22FFF7C0BF27
:103860002DE9FF47804614461D46104619460022A2
:1038700000239DF8309001F061FF20B105F1004771
:103880003D46012600E00646334B00270022F9B2F0
:1038900049450AD2104619462DA3D3E9002301F069
:1038A000DBFC013702460B46F1E72046294601F0D2
:1038B00021FB0D46044601F069FF074633464046AA
:1038C00039460A22FFF78CFF0646B9F1000F3BD0BC
:1038D000384601F04BFCB9F10F0F28BF4FF00F092C
:1038E0000B4602462946204601F002FB09F1010978
:1038F0002E238DF800305FFA89F94FF0010A00227B
:10390000164B01F0A9FC0D46044601F03FFF04AB45
:103910005344C0B200F1300203F8102C01F036FC21
:103920000AF1010702460B46FFB22046294601F084
:10393000DFFA4F4501D0BA46E1E7D8F800304046FB
:103940005B6869464A469847304604B0BDE8F08750
:10395000000000A09999B93F0000E03F000024401A
:1039600008B5FDF703F8FDF7D3FA00F005F8FAE71C
:1039700002F05CBA02F062BA10B50E4C2378BBB903
:1039800001232370FFF7DAFD08B101F09DFA00F082
:1039900069FA08B101F079F900F090FD08B101F081
:1039A000FCF900F0F5FF08B101F07FFA0023237065
:1039B00010BD00BFF08FFF1F10B50023B0FBF2F465
:1039C00002FB1400092894BF30303730C0B2C8540D
:1039D00020460CB10133F1E7CA18547022469A42CE
:1039E00006DA885CCC5C8C54C8540132013BF6E7A3
:1039F000084610BD234B1A6842F480621A60224ABE
:103A000000231370214A1370214A1370214A137046
:103A1000214A1370214B1B782BB1152B07D140F293
:103A200013321F4B02E01F4B40F213321A601E4B41
:103A30001B78012B05D0052B07D14FF451721B4B7E
:103A400002E01B4B4FF451721A601A4BC0F3443220
:103A50001A70C0F347125A700221042200F01F00AE
:103A600098729A70D9745A7588221A743C22DA7046
:103A7000114B40226FF44A711A700B444FF40052FC
:103A80001A607047348004407B90FF1FF98FFF1F3E
:103A90008490FF1F7C90FF1FF88FFF1F3A90FF1F3D
:103AA00018C0044040A00440488CFF1F1CC00440C4
:103AB00044A0044000A006402DE400E0134A93789F
:103AC00000F0030103F0EC030B43410748BF43F050
:103AD0001003937000F00F03042B0C4903D18B7972
:103AE00043F040038B715379C20603F0EF03074A9A
:103AF00048BF43F0100353719379810603F0EF033D
:103B000048BF43F010039371704700BF00A0064008
:103B100008B5114B1B685B0500D408BD0F4B1A7824
:103B200002F0FF0312B1FFF727FFF7E70C4A4FF44B
:103B3000005111600B4A0C49D37040F203120A6025
:103B40004A600A4A13700A4A13700A4B1B680BB189
:103B500001221A7008BD00BF34800440F88FFF1F97
:103B600084E100E000A0064040A004407B90FF1FDD
:103B7000F98FFF1FF48FFF1F38B50446094B1B78E0
:103B800003F0FF05002BF9D120460121FEF7A6FE28
:103B900020462946FEF774FE034B53F83420034BAE
:103BA0001A6038BDF88FFF1F906500008090FF1FDE
:103BB0000F4A137898421AD00E490968490515D55D
:103BC000012B04D0052B05D100210B4B01E00B4B41
:103BD00000211960012805D0052807D14FF4517143
:103BE000054B02E0054B4FF451711960107070479E
:103BF000488CFF1F348004401CC0044044A0044093
:103C00000E4A1378984218D00D490968490513D512
:103C10002BB1152B05D10B4B0021196001E00A498E
:103C20000B6028B1152807D140F21331054B02E093
:103C3000054B40F213311960107070473A90FF1F26
:103C40003480044018C0044040A004400D4A38B5F8
:103C5000146814F480624FF0000410D021280A4D3B
:103C60000AD80A4A012152F830302B60FEF736FE9E
:103C70002B681C70012038BD2C60204638BD1046D2
:103C800038BD00BF34800440F48FFF1F90650000F2
:103C90000E4B1B6813F4806316D012280C4B03D113
:103CA00040F202310B4A04E0142809D10A4A40F2DA
:103CB000023111605A7B42F001025A7301207047B1
:103CC0005A7B02F0FE025A73002070473480044091
:103CD00000A006400CA0044014C00440F8B51D4BE1
:103CE0001B685A05064633D51B4B1B680BB10122D6
:103CF0001A701A4B1C780134402C1F4628BF002430
:103D0000174D2B78A34218D1FEF786FB40280FDC15
:103D1000144A13791B06F3D52B7813490133402B32
:103D200028BF0023C95CDBB2C9B2D1712B70E7E7B1
:103D3000FF28E5DDFFF720FEE2E70B4BF6B21E554C
:103D40000A4B01221A70074BE4B2BC223C70DA70B5
:103D5000F8BD00BF348004408090FF1F8490FF1F97
:103D60007C90FF1F00A00640FA8FFF1FF88FFF1FF7
:103D7000274B1B685A052DE9F04707468A4644D56C
:103D8000244B1B680BB101221A703D4607EB0A0356
:103D90009D4237D2DFF890801F4E98F8004096F889
:103DA00000900134402C28BF00245FFA89F9A14516
:103DB0001DD11A4BBC22DA70FEF72EFB40280FDC17
:103DC000164A13791B060FD5337815490133402B5A
:103DD00028BF0023C95CDBB2C9B2D171337003E0E4
:103DE000FF2801DDFFF7C8FD33784B45E4D00C4BCD
:103DF00015F8012B1A550B4B0122E4B21A7088F802
:103E00000040C3E7054BBC22DA70BDE8F08700BF75
:103E1000348004408090FF1F7C90FF1F00A006406C
:103E2000FA8FFF1FF88FFF1F8490FF1F08B5034B09
:103E30001B7813B1FFF7A0FDF9E708BDF88FFF1F4E
:103E4000064A074B1B781078DBB2C0B283422CBF06
:103E50003F3000F1FF30C01A704700BF7C90FF1F59
:103E60008490FF1F054B1878054B1B78C0B2DBB25E
:103E7000984238BF4030C01A704700BF7B90FF1F88
:103E8000F98FFF1F10B5104B10491A780B78D2B27A
:103E9000DBB29A4214D00133402B28BF00230C48D8
:103EA000DCB2C05C0C700B490968C0B251B19A42D7
:103EB00038BF4032D31A1A2B04DC00230B7010BD1C
:103EC0004FF0FF3010BD00BF7B90FF1FF98FFF1F29
:103ED0003B90FF1FF48FFF1F084B1A78084B1B788D
:103EE000DBB29A4207D00133402B28BF0023054A9A
:103EF000D05CC0B270474FF0FF3070477B90FF1F1F
:103F0000F98FFF1F3B90FF1F0C4B1B685B0514D5FF
:103F10000B4BDA7802F0CB02DA7040225A74DA786E
:103F200042F03402DA70074B1A78074BD2B21A709B
:103F3000064B1B680BB100221A7070473480044096
:103F400000A00640F98FFF1F7B90FF1FF48FFF1F1B
:103F500030B5374B1A7912F0300F31D072B69A7DE6
:103F600002F0FF0022B9DA7940225A7462B627E0E3
:103F700062B6304A304913780978DBB2C9B21446C8
:103F80002B4AD5795A1C402A28BF00228A42EDB21A
:103F900002D02A4B9D541346421E12F0FF00EFD16F
:103FA000DAB22270264A126852B18B4236BFC1F192
:103FB0004001C1EB03035B18272BC4BF012313701F
:103FC0001B4BD978C9B20C0620D51B7918061DD514
:103FD0001C4B1D4A1D781378EDB2DBB21046AB4284
:103FE0000CD0134A0133402B1479184C28BF0023FE
:103FF000E45CE4B2D471127D072AF0D9DBB203701D
:104000000B4B1A79120644BF7C22DA704B060ED590
:10401000074B1A7912F0400F194608D00C4B0022BA
:104020001A700C4B1B6803B11A703C23CB7030BD67
:1040300000A006407B90FF1FF98FFF1F3B90FF1FE2
:10404000F48FFF1F8490FF1F7C90FF1FFA8FFF1FCC
:10405000F88FFF1F8090FF1F234B1A6842F4006205
:104060001A60224A00231370214A1370214A1370E8
:10407000214A1370214A1370214B1B78092B05D05C
:104080001A2B07D140F213321E4B02E01E4B40F2B6
:1040900013321A601D4B1B780A2B05D01F2B07D13A
:1040A0004FF451721A4B02E01A4B4FF451721A60DE
:1040B000194BC0F344321A70C0F347125A7000F023
:1040C0001F000422022198729A70D9745A758822AE
:1040D0001A743C22DA70114B40221A70A3F22B336F
:1040E0004FF400421A60704734800440F690FF1F7E
:1040F0008D90FF1FFC90FF1FF790FF1F8C90FF1FFC
:10410000498CFF1F04D004400CB004404A8CFF1FB0
:1041100000D0044010B0044000B006402FE400E09E
:10412000134A937800F0030103F0EC030B434107BB
:1041300048BF43F01003937000F00F03042B0C49A9
:1041400003D18B7943F040038B715379C20603F09E
:10415000EF03074A48BF43F0100353719379810678
:1041600003F0EF0348BF43F010039371704700BFA3
:1041700000B0064008B5114B1B681B0500D408BDF4
:104180000F4B1A7802F0FF0312B1FFF7F5FBF7E7C8
:104190000C4A4FF4004111600B4A0C49D37040F2B5
:1041A00003120A604A600A4A13700A4A13700A4BE3
:1041B0001B680BB101221A7008BD00BF3480044097
:1041C0008C90FF1F84E100E000B006400CB004407A
:1041D000F690FF1F8D90FF1F8890FF1F38B5044693
:1041E000094B1B7803F0FF05002BF9D12046012174
:1041F000FEF774FB20462946FEF742FB034B53F8BB
:104200003420034B1A6038BD8C90FF1F906500006E
:10421000F890FF1F0F4A137898421AD00E49096888
:10422000C90415D50A2B04D01F2B05D100210B4B37
:1042300001E00B4B002119600A2805D01F2807D187
:104240004FF45171054B02E0054B4FF45171196069
:10425000107070474A8CFF1F3480044000D0044027
:1042600010B004400F4A137898421AD00E490968DA
:10427000C90415D5092B04D01A2B05D100210B4BED
:1042800001E00B4B00211960092805D01A2807D13D
:1042900040F21331054B02E0054B40F21331196037
:1042A00010707047498CFF1F3480044004D00440D4
:1042B0000CB004400D4A38B5146814F400624FF095
:1042C000000410D021280A4D0AD80A4A012152F8C8
:1042D00030302B60FEF702FB2B681C70012038BDCC
:1042E0002C60204638BD104638BD00BF34800440E5
:1042F0008890FF1F906500000B4B1B6813F4006350
:1043000010D01728094B09D1094A40F20231116037
:104310005A7B42F001025A73012070475A7B02F027
:10432000FE025A73002070473480044000B00640FB
:1043300008B00440F8B51D4B1B681A05064633D576
:104340001B4B1B680BB101221A701A4B1C780134ED
:10435000282C1F4628BF0024174D2B78A34218D1C4
:10436000FEF75AF840280FDC144A13791B06F3D5E0
:104370002B7813490133282B28BF0023C95CDBB2FB
:10438000C9B2D1712B70E7E7FF28E5DDFFF7F4FA3A
:10439000E2E70B4BF6B21E550A4B01221A70074B8F
:1043A000E4B2BC223C70DA70F8BD00BF3480044037
:1043B000F890FF1FFC90FF1FF790FF1F00B0064012
:1043C0008E90FF1F8C90FF1F274B1B681A052DE94D
:1043D000F04707468A4644D5244B1B680BB101229F
:1043E0001A703D4607EB0A039D4237D2DFF89080F2
:1043F0001F4E98F8004096F800900134282C28BFF2
:1044000000245FFA89F9A1451DD11A4BBC22DA704C
:10441000FEF702F840280FDC164A13791B060FD569
:10442000337815490133282B28BF0023C95CDBB240
:10443000C9B2D171337003E0FF2801DDFFF79CFAA8
:1044400033784B45E4D00C4B15F8012B1A550B4B28
:104450000122E4B21A7088F80040C3E7054BBC2281
:10446000DA70BDE8F08700BF34800440F890FF1F89
:10447000F790FF1F00B006408E90FF1F8C90FF1F2B
:10448000FC90FF1F08B5034B1B7813B1FFF774FABC
:10449000F9E708BD8C90FF1F064A074B1B78107880
:1044A000DBB2C0B283422CBF273000F1FF30C01A0C
:1044B000704700BFF790FF1FFC90FF1F054B187857
:1044C000054B1B78C0B2DBB2984238BF4030C01AEF
:1044D000704700BFF690FF1F8D90FF1F10B5104B67
:1044E00010491A780B78D2B2DBB29A4214D0013359
:1044F000402B28BF00230C48DCB2C05C0C700B4979
:104500000968C0B251B19A4238BF4032D31A1A2B4F
:1045100004DC00230B7010BD4FF0FF3010BD00BF56
:10452000F690FF1F8D90FF1FB690FF1F8890FF1F12
:10453000084B1A78084B1B78DBB29A4207D001333C
:10454000402B28BF0023054AD05CC0B270474FF013
:10455000FF307047F690FF1F8D90FF1FB690FF1F32
:104560000C4B1B681B0514D50B4BDA7802F0CB0201
:10457000DA7040225A74DA7842F03402DA70074B6B
:104580001A78074BD2B21A70064B1B680BB1002287
:104590001A7070473480044000B006408D90FF1FB1
:1045A000F690FF1F8890FF1F30B5374B1A7912F035
:1045B000300F31D072B69A7D02F0FF0022B9DA795D
:1045C00040225A7462B627E062B6304A3049137806
:1045D0000978DBB2C9B214462B4AD5795A1C402A55
:1045E00028BF00228A42EDB202D02A4B9D541346C6
:1045F000421E12F0FF00EFD1DAB22270264A126892
:1046000052B18B4236BFC1F14001C1EB03035B18CD
:10461000272BC4BF012313701B4BD978C9B20C06DA
:1046200020D51B7918061DD51C4B1D4A1D78137803
:10463000EDB2DBB21046AB420CD0134A0133282B4B
:104640001479184C28BF0023E45CE4B2D471127DC5
:10465000072AF0D9DBB203700B4B1A79120644BF5C
:104660007C22DA704B060ED5074B1A7912F0400FF8
:10467000194608D00C4B00221A700C4B1B6803B172
:104680001A703C23CB7030BD00B00640F690FF1F7F
:104690008D90FF1FB690FF1F8890FF1FFC90FF1F9B
:1046A000F790FF1F8E90FF1F8C90FF1FF890FF1F49
:1046B000174B1A6842F480521A60164A002313708E
:1046C000154A1370154A1370154A1370154A137062
:1046D000154A40F2133111604FF451715160134A81
:1046E000C0F344311170C0F3471100F01F00517046
:1046F0009072937013742C23D3700D4B40226FF47F
:104700004B711A700B444FF400321A60704700BFAF
:10471000348004406E91FF1F0591FF1F7491FF1FAD
:104720006F91FF1F0491FF1F08C0044000C00640A6
:1047300031E400E0134A937800F0030103F0EC0346
:104740000B43410748BF43F01003937000F00F0381
:10475000042B0C4903D18B7943F040038B715379BF
:10476000C20603F0EF03074A48BF43F0100353713A
:104770009379810603F0EF0348BF43F01003937170
:10478000704700BF00C0064008B5114B1B68DB0432
:1047900000D408BD0F4B1A7802F0FF0312B1FFF7E7
:1047A000EBF8F7E70C4A4FF4003111600B4A0C4963
:1047B000D37040F203120A604A600A4A13700A4A30
:1047C00013700A4B1B680BB101221A7008BD00BFA1
:1047D000348004400491FF1F84E100E000C00640E3
:1047E00008C004406E91FF1F0591FF1F0091FF1F3D
:1047F00038B50446094B1B7803F0FF05002BF9D1AF
:1048000020460121FEF76AF820462946FEF738F8CF
:10481000034B53F83420034B1A6038BD0491FF1F3B
:10482000906500007091FF1F704770470D4A38B5C2
:10483000146814F480524FF0000410D021280A4D5F
:104840000AD80A4A012152F830302B60FEF746F8A8
:104850002B681C70012038BD2C60204638BD1046E6
:1048600038BD00BF348004400091FF1F90650000F8
:104870000B4B1B6813F4805310D00E28094B09D141
:10488000094A40F2023111605A7B42F001025A7328
:10489000012070475A7B02F0FE025A7300207047D5
:1048A0003480044000C0064004C00440F8B51D4BED
:1048B0001B68DA04064633D51B4B1B680BB101227B
:1048C0001A701A4B1C780134282C1F4628BF00246C
:1048D000174D2B78A34218D1FDF79EFD40280FDC21
:1048E000144A13791B06F3D52B7813490133282B6F
:1048F00028BF0023C95CDBB2C9B2D1712B70E7E7D6
:10490000FF28E5DDFFF738F8E2E70B4BF6B21E555E
:104910000A4B01221A70074BE4B2AC223C70DA70E9
:10492000F8BD00BF348004407091FF1F7491FF1FD9
:104930006F91FF1F00C006400691FF1F0491FF1FEB
:1049400038B504464518AC4204D014F8010BFFF703
:10495000ADFFF8E738BDFFFF08B5034B1B7813B177
:10496000FFF70AF8F9E708BD0491FF1F064A074B55
:104970001B781078DBB2C0B283422CBF273000F125
:10498000FF30C01A704700BF6F91FF1F7491FF1F67
:10499000054B1878054B1B78C0B2DBB2984238BF84
:1049A0004030C01A704700BF6E91FF1F0591FF1F76
:1049B00010B5104B10491A780B78D2B2DBB29A427C
:1049C00014D00133402B28BF00230C48DCB2C05C5C
:1049D0000C700B490968C0B251B19A4238BF4032DD
:1049E000D31A1A2B04DC00230B7010BD4FF0FF30DC
:1049F00010BD00BF6E91FF1F0591FF1F2E91FF1F7D
:104A00000091FF1F084B1A78084B1B78DBB29A42C3
:104A100007D00133402B28BF0023054AD05CC0B229
:104A200070474FF0FF3070476E91FF1F0591FF1FD9
:104A30002E91FF1F054B1A78054BD2B21A70054B09
:104A40001B680BB100221A70704700BF0591FF1F51
:104A50006E91FF1F0091FF1F10B5294B1A79920626
:104A600020D5284AD879137827490133402B097873
:104A700028BF00238B42C0B203D02449C854D9B206
:104A80001170234A116869B1224A1278D2B2934256
:104A900036BFC2F14002C2EB03039B18272BC4BFF1
:104AA00001230B70164AD178C9B20C0616D51379BA
:104AB000180613D5184B17481C780378DBB29C42B4
:104AC00002D16C23D37009E00133282B28BF0023C7
:104AD000124CE45CDBB2E4B2D47103704B060ED529
:104AE000074B1A7912F0400F194608D00C4B0022E0
:104AF0001A700C4B1B6803B11A702C23CB7010BDBD
:104B000000C006406E91FF1F0591FF1F2E91FF1FF1
:104B10000091FF1F6F91FF1F7491FF1F0691FF1FF0
:104B20000491FF1F7091FF1F1FB572B6154B7022C5
:104B30001A70154A412111700F2102F8011C8022C0
:104B40001A701A781206FCD5104B186862B6104B12
:104B5000984298BF0A2301AC98BF584321460A22C5
:104B6000FEF72AFF0023E15C0A4A29B102EB430069
:104B700001330A2B4180F6D101335B00137004B07E
:104B800010BD00BF000002400700024008000240C4
:104B90007F969800D48CFF1F08B50368C9B21B68C4
:104BA000984708BD08B50368C9B21B68984708BD97
:104BB00008B50368C9B21B68984708BD08B5036803
:104BC000C9B21B68984708BD034800EB5100B0FB11
:104BD000F1F0FEF70FBF00BF0044950810B506487E
:104BE00000EB51001446B0FBF1F0FEF703FF204646
:104BF000BDE81040FEF762BF00449508FEF788BF8D
:104C00000846FEF7B9BF0846FEF7FABF0846FEF7AA
:104C1000CFBF08B50846FFF719F8003018BF0120CC
:104C200008BD08B50846FFF733F8003018BF01206B
:104C300008BDFFF717B9FFF74FB9FFF723B9FFF723
:104C4000F5B8FFF761B9FFF7FBB808B50846FFF7FD
:104C500045F8012008BD08B50846FFF73FF80120D8
:104C600008BD10B5084614461146FFF781F82046E6
:104C700010BD38B508460D4601F090F904462146AE
:104C80002846FFF775F8204638BD7047044B0022D0
:104C90001A714FF47A711A73024A99601A60704758
:104CA0007891FF1F0867000008B50368C9B21B6848
:104CB000984708BD08B50368C9B21B68984708BD86
:104CC00008B50368C9B21B68984708BD08B50368F2
:104CD000C9B21B68984708BD034800EB5100B0FB00
:104CE000F1F0FFF7B9B900BF0044950810B50648C8
:104CF00000EB51001446B0FBF1F0FFF7ADF9204690
:104D0000BDE81040FFF70CBA00449508FFF732BA2F
:104D10000846FFF763BA0846FFF7A4BA0846FFF74C
:104D200079BA08B50846FFF7C5FA003018BF012068
:104D300008BD08B50846FFF7DFFA003018BF0120AC
:104D400008BDFFF7BBBBFFF7F3BBFFF7C7BBFFF720
:104D500099BBFFF705BCFFF79FBB08B50846FFF7F7
:104D6000E9FA012008BD08B50846FFF7E3FA01207B
:104D700008BD10B5084614461146FFF725FB20462E
:104D800010BD38B508460D4601F008F90446214625
:104D90002846FFF719FB204638BD7047044B002218
:104DA0001A714FF47A711A73024A99601A60704747
:104DB0008891FF1F6867000008B50368C9B21B68C7
:104DC000984708BD08B50368C9B21B68984708BD75
:104DD00008B50368C9B21B68984708BD08B50368E1
:104DE000C9B21B68984708BD034800EB5100B0FBEF
:104DF000F1F0FFF75DBC00BF00A24A0410B5064801
:104E000000EB51001446B0FBF1F0FFF751FC2046D7
:104E1000BDE81040FFF78EBC00A24A04FFF7B4BC07
:104E20000846FFF7E5BC0846FFF7FFBC0846FFF75A
:104E3000FBBC08B50846FFF7F9FC003018BF01209D
:104E400008BD08B50846FFF713FD003018BF012064
:104E500008BDFFF79DBDFFF7D5BDFFF7A9BDFFF763
:104E60007BBDFFF7E7BDFFF781BD08B50846FFF73B
:104E70001DFD012008BD08B50846FFF717FD0120FC
:104E800008BD10B5084614461146FFF759FD2046E7
:104E900010BD38B508460D4601F080F8044621469D
:104EA0002846FFF74DFD204638BD7047044B0022D1
:104EB0001A714FF47A711A73024A99601A60704736
:104EC0009891FF1FC86700007047FFFF044B002246
:104ED0001A714FF47A711A73024A99601A60704716
:104EE000A891FF1FB85F000081F0004102E000BF01
:104EF00083F0004330B54FEA41044FEA430594EA9A
:104F0000050F08BF90EA020F1FBF54EA000C55EAD4
:104F1000020C7FEA645C7FEA655C00F0E2804FEAA5
:104F20005454D4EB5555B8BF6D420CDD2C4480EA87
:104F3000020281EA030382EA000083EA010180EAB7
:104F4000020281EA0303362D88BF30BD11F0004F05
:104F50004FEA01314FF4801C4CEA113102D040423B
:104F600061EB410113F0004F4FEA03334CEA133376
:104F700002D0524263EB430394EA050F00F0A7808E
:104F8000A4F10104D5F1200E0DDB02FA0EFC22FA89
:104F900005F2801841F1000103FA0EF2801843FA7D
:104FA00005F359410EE0A5F120050EF1200E012A6E
:104FB00003FA0EFC28BF4CF0020C43FA05F3C018AC
:104FC00051EBE37101F0004507D54FF0000EDCF125
:104FD000000C7EEB00006EEB0101B1F5801F1BD3CE
:104FE000B1F5001F0CD349085FEA30004FEA3C0CD2
:104FF00004F101044FEA445212F5800F80F09A80C8
:10500000BCF1004F08BF5FEA500C50F1000041EBCB
:10501000045141EA050130BD5FEA4C0C404141EBCF
:10502000010111F4801FA4F10104E9D191F0000FF6
:1050300004BF01460020B1FA81F308BF2033A3F179
:105040000B03B3F120020CDA0C3208DD02F1140C70
:10505000C2F10C0201FA0CF021FA02F10CE002F1AB
:105060001402D8BFC2F1200C01FA02F120FA0CFCA4
:10507000DCBF41EA0C019040E41AA2BF01EB0451ED
:10508000294330BD6FEA04041F3C1CDA0C340EDCEB
:1050900004F11404C4F1200220FA04F001FA02F32E
:1050A00040EA030021FA04F345EA030130BDC4F1EC
:1050B0000C04C4F1200220FA02F001FA04F340EAE1
:1050C0000300294630BD21FA04F0294630BD94F092
:1050D000000F83F4801306BF81F480110134013D79
:1050E0004EE77FEA645C18BF7FEA655C29D094EAEA
:1050F000050F08BF90EA020F05D054EA000C04BF68
:105100001946104630BD91EA030F1EBF0021002052
:1051100030BD5FEA545C05D14000494128BF41F0F1
:10512000004130BD14F580043CBF01F5801130BD55
:1051300001F0004545F0FE4141F470014FF00000E0
:1051400030BD7FEA645C1ABF194610467FEA655C91
:105150001CBF0B46024650EA013406BF52EA033533
:1051600091EA030F41F4002130BD00BF90F0000F21
:1051700004BF0021704730B54FF4806404F132045D
:105180004FF000054FF0000150E700BF90F0000F16
:1051900004BF0021704730B54FF4806404F132043D
:1051A00010F0004548BF40424FF000013EE700BF0D
:1051B00042004FEAE2014FEA31014FEA02701FBF9D
:1051C00012F07F4393F07F4F81F06051704792F06F
:1051D000000F14BF93F07F4F704730B54FF46074E9
:1051E00001F0004521F0004120E700BF50EA010234
:1051F00008BF704730B54FF000050AE050EA0102E1
:1052000008BF704730B511F0004502D5404261EB50
:1052100041014FF4806404F132045FEA915C3FF491
:10522000DCAE4FF003025FEADC0C18BF03325FEA2A
:10523000DC0C18BF033202EBDC02C2F1200300FADF
:1052400003FC20FA02F001FA03FE40EA0E0021FA04
:1052500002F11444C1E600BF70B54FF0FF0C4CF4EE
:10526000E06C1CEA11541DBF1CEA135594EA0C0FA4
:1052700095EA0C0F00F0DEF82C4481EA030621EADF
:105280004C5123EA4C5350EA013518BF52EA03351A
:1052900041F4801143F4801338D0A0FB02CE4FF0CC
:1052A0000005E1FB02E506F00042E0FB03E54FF0FC
:1052B0000006E1FB03569CF0000F18BF4EF0010EF4
:1052C000A4F1FF04B6F5007F64F5407404D25FEAF0
:1052D0004E0E6D4146EB060642EAC62141EA5551A3
:1052E0004FEAC52040EA5E504FEACE2EB4F1FD0CE5
:1052F00088BFBCF5E06F1ED8BEF1004F08BF5FEA63
:10530000500E50F1000041EB045170BD06F0004614
:1053100046EA010140EA020081EA0301B4EB5C04C1
:10532000C2BFD4EB0C0541EA045170BD41F48011B9
:105330004FF0000E013C00F3AB8014F1360FDEBFDE
:10534000002001F0004170BDC4F10004203C35DABA
:105350000C341BDC04F11404C4F1200500FA05F33D
:1053600020FA04F001FA05F240EA020001F00042DE
:1053700021F0004110EBD37021FA04F642EB060154
:105380005EEA430E08BF20EAD37070BDC4F10C047E
:10539000C4F1200500FA04F320FA05F001FA04F242
:1053A00040EA020001F0004110EBD37041F100012E
:1053B0005EEA430E08BF20EAD37070BDC4F1200539
:1053C00000FA05F24EEA020E20FA04F301FA05F2A1
:1053D00043EA020321FA04F001F0004121FA04F249
:1053E00020EA020000EBD3705EEA430E08BF20EA19
:1053F000D37070BD94F0000F0FD101F00046400053
:1054000041EB010111F4801F08BF013CF7D041EAD4
:10541000060195F0000F18BF704703F000465200D8
:1054200043EB030313F4801F08BF013DF7D043EAA9
:105430000603704794EA0C0F0CEA135518BF95EA5F
:105440000C0F0CD050EA410618BF52EA4306D1D1E6
:1054500081EA030101F000414FF0000070BD50EA05
:10546000410606BF1046194652EA430619D094EA8F
:105470000C0F02D150EA013613D195EA0C0F05D179
:1054800052EA03361CBF104619460AD181EA0301CD
:1054900001F0004141F0FE4141F470014FF0000085
:1054A00070BD41F0FE4141F4780170BD70B54FF020
:1054B000FF0C4CF4E06C1CEA11541DBF1CEA1355A0
:1054C00094EA0C0F95EA0C0F00F0A7F8A4EB050482
:1054D00081EA030E52EA03354FEA013100F0888079
:1054E0004FEA03334FF0805545EA131343EA126342
:1054F0004FEA022245EA111545EA10654FEA0026F7
:105500000EF000419D4208BF964244F1FD0404F5AF
:10551000407402D25B084FEA3202B61A65EB03050B
:105520005B084FEA32024FF480104FF4002CB6EBC8
:10553000020E75EB030E22BFB61A754640EA0C0048
:105540005B084FEA3202B6EB020E75EB030E22BF88
:10555000B61A754640EA5C005B084FEA3202B6EBC9
:10556000020E75EB030E22BFB61A754640EA9C0088
:105570005B084FEA3202B6EB020E75EB030E22BF58
:10558000B61A754640EADC0055EA060E18D04FEA16
:10559000051545EA16754FEA06164FEAC30343EAB6
:1055A00052734FEAC2025FEA1C1CC0D111F4801F83
:1055B0000BD141EA00014FF000004FF0004CB6E77C
:1055C00011F4801F04BF01430020B4F1FD0C88BF1B
:1055D000BCF5E06F3FF6AFAEB5EB030C04BFB6EB26
:1055E000020C5FEA500C50F1000041EB045170BD19
:1055F0000EF0004E4EEA113114EB5C04C2BFD4EB46
:105600000C0541EA045170BD41F480114FF0000EC9
:10561000013C90E645EA060E8DE60CEA135594EA45
:105620000C0F08BF95EA0C0F3FF43BAF94EA0C0F48
:105630000AD150EA01347FF434AF95EA0C0F7FF4BD
:1056400025AF104619462CE795EA0C0F06D152EA11
:1056500003353FF4FDAE1046194622E750EA4106F5
:1056600018BF52EA43067FF4C5AE50EA41047FF406
:105670000DAF52EA43057FF4EBAE12E74FF0FF3C6B
:1056800006E000BF4FF0010C02E000BF4FF0010C3C
:105690004DF804CD4FEA410C7FEA6C5C4FEA430CB5
:1056A00018BF7FEA6C5C1BD001B050EA410C0CBF04
:1056B00052EA430C91EA030F02BF90EA020F002066
:1056C000704710F1000F91EA030F58BF994208BFCD
:1056D00090422CBFD8176FEAE37040F0010070478A
:1056E0004FEA410C7FEA6C5C02D150EA013C07D1E1
:1056F0004FEA430C7FEA6C5CD6D152EA033CD3D02C
:105700005DF8040B704700BF8446104662468C4625
:105710001946634600E000BF01B5FFF7B7FF002858
:1057200048BF10F1000F01BD4DF808EDFFF7F4FF81
:105730000CBF012000205DF808FB00BF4DF808ED0C
:10574000FFF7EAFF34BF012000205DF808FB00BF2F
:105750004DF808EDFFF7E0FF94BF012000205DF851
:1057600008FB00BF4DF808EDFFF7CEFF94BF012006
:1057700000205DF808FB00BF4DF808EDFFF7C4FFFF
:1057800034BF012000205DF808FB00BF4A0011D2A1
:1057900012F5001211D20DD56FF47873B3EB62528B
:1057A0000ED44FEAC12343F0004343EA505323FA97
:1057B00002F070474FF00000704750EA013002D10C
:1057C0004FF0FF3070474FF00000704780F000400E
:1057D00002E000BF81F0004142001FBF5FEA4103C9
:1057E00092EA030F7FEA226C7FEA236C6AD04FEAC9
:1057F0001262D2EB1363C1BFD2184140484041400E
:10580000B8BF5B42192B88BF704710F0004F40F4BF
:10581000000020F07F4018BF404211F0004F41F4DB
:10582000000121F07F4118BF494292EA030F3FD0A7
:10583000A2F1010241FA03FC10EB0C00C3F12003BA
:1058400001FA03F100F0004302D5494260EB400049
:10585000B0F5000F13D3B0F1807F06D340084FEAB4
:10586000310102F10102FE2A51D2B1F1004F40EBA9
:10587000C25008BF20F0010040EA03007047490011
:1058800040EB000010F4000FA2F10102EDD1B0FADC
:1058900080FCACF1080CB2EB0C0200FA0CF0AABFD1
:1058A00000EBC25052421843BCBFD040184370476F
:1058B00092F0000F81F4000106BF80F40000013275
:1058C000013BB5E74FEA41037FEA226C18BF7FEA4C
:1058D000236C21D092EA030F04D092F0000F08BF8E
:1058E0000846704790EA010F1CBF0020704712F075
:1058F0007F4F04D1400028BF40F00040704712F1B4
:1059000000723CBF00F50000704700F0004343F018
:10591000FE4040F4000070477FEA226216BF08464E
:105920007FEA23630146420206BF5FEA412390EA11
:10593000010F40F4800070474FF0000304E000BF07
:1059400010F0004348BF40425FEA000C08BF7047B8
:1059500043F0964301464FF000001CE050EA01027C
:1059600008BF70474FF000030AE000BF50EA010291
:1059700008BF704711F0004302D5404261EB41017E
:105980005FEA010C02BF84460146002043F0B643A3
:1059900008BFA3F18053A3F50003BCFA8CF2083AC8
:1059A000A3EBC25310DB01FA02FC634400FA02FCD1
:1059B000C2F12002BCF1004F20FA02F243EB0200D8
:1059C00008BF20F00100704702F1200201FA02FC3A
:1059D000C2F1200250EA4C0021FA02F243EB02002D
:1059E00008BF20EADC7070474FF0FF0C1CEAD05271
:1059F0001EBF1CEAD15392EA0C0F93EA0C0F6FD032
:105A00001A4480EA010C400218BF5FEA41211ED00F
:105A10004FF0006343EA501043EA5111A0FB0131FB
:105A20000CF00040B1F5000F3EBF490041EAD371D0
:105A30005B0040EA010062F17F02FD2A1DD8B3F14C
:105A4000004F40EBC25008BF20F00100704790F0BB
:105A5000000F0CF0004C08BF49024CEA502040EA0D
:105A600051207F3AC2BFD2F1FF0340EAC2507047D3
:105A700040F400004FF00003013A5DDC12F1190F11
:105A8000DCBF00F000407047C2F10002410021FA83
:105A900002F1C2F1200200FA02FC5FEA310040F19B
:105AA000000053EA4C0308BF20EADC70704792F014
:105AB000000F00F0004C02BF400010F4000F013A4C
:105AC000F9D040EA0C0093F0000F01F0004C02BF47
:105AD000490011F4000F013BF9D041EA0C018FE7B6
